{
  "_format": "hh-sol-artifact-1",
  "contractName": "Cowboy",
  "sourceName": "contracts/Cowboy.sol",
  "abi": [
    {
      "inputs": [],
      "stateMutability": "nonpayable",
      "type": "constructor"
    },
    {
      "anonymous": false,
      "inputs": [
        {
          "indexed": true,
          "internalType": "address",
          "name": "owner",
          "type": "address"
        },
        {
          "indexed": true,
          "internalType": "address",
          "name": "approved",
          "type": "address"
        },
        {
          "indexed": true,
          "internalType": "uint256",
          "name": "tokenId",
          "type": "uint256"
        }
      ],
      "name": "Approval",
      "type": "event"
    },
    {
      "anonymous": false,
      "inputs": [
        {
          "indexed": true,
          "internalType": "address",
          "name": "owner",
          "type": "address"
        },
        {
          "indexed": true,
          "internalType": "address",
          "name": "operator",
          "type": "address"
        },
        {
          "indexed": false,
          "internalType": "bool",
          "name": "approved",
          "type": "bool"
        }
      ],
      "name": "ApprovalForAll",
      "type": "event"
    },
    {
      "anonymous": false,
      "inputs": [
        {
          "indexed": true,
          "internalType": "address",
          "name": "minter",
          "type": "address"
        },
        {
          "indexed": false,
          "internalType": "uint256",
          "name": "tokenId",
          "type": "uint256"
        }
      ],
      "name": "NFTMinted",
      "type": "event"
    },
    {
      "anonymous": false,
      "inputs": [
        {
          "indexed": true,
          "internalType": "address",
          "name": "previousOwner",
          "type": "address"
        },
        {
          "indexed": true,
          "internalType": "address",
          "name": "newOwner",
          "type": "address"
        }
      ],
      "name": "OwnershipTransferred",
      "type": "event"
    },
    {
      "anonymous": false,
      "inputs": [
        {
          "indexed": true,
          "internalType": "address",
          "name": "from",
          "type": "address"
        },
        {
          "indexed": true,
          "internalType": "address",
          "name": "to",
          "type": "address"
        },
        {
          "indexed": true,
          "internalType": "uint256",
          "name": "tokenId",
          "type": "uint256"
        }
      ],
      "name": "Transfer",
      "type": "event"
    },
    {
      "inputs": [
        {
          "internalType": "address",
          "name": "to",
          "type": "address"
        },
        {
          "internalType": "uint256",
          "name": "tokenId",
          "type": "uint256"
        }
      ],
      "name": "approve",
      "outputs": [],
      "stateMutability": "nonpayable",
      "type": "function"
    },
    {
      "inputs": [
        {
          "internalType": "address",
          "name": "owner",
          "type": "address"
        }
      ],
      "name": "balanceOf",
      "outputs": [
        {
          "internalType": "uint256",
          "name": "",
          "type": "uint256"
        }
      ],
      "stateMutability": "view",
      "type": "function"
    },
    {
      "inputs": [
        {
          "internalType": "uint256",
          "name": "tokenId",
          "type": "uint256"
        }
      ],
      "name": "getApproved",
      "outputs": [
        {
          "internalType": "address",
          "name": "",
          "type": "address"
        }
      ],
      "stateMutability": "view",
      "type": "function"
    },
    {
      "inputs": [
        {
          "internalType": "uint256",
          "name": "tokenId",
          "type": "uint256"
        }
      ],
      "name": "getTokenUrl",
      "outputs": [
        {
          "internalType": "string",
          "name": "",
          "type": "string"
        }
      ],
      "stateMutability": "view",
      "type": "function"
    },
    {
      "inputs": [
        {
          "internalType": "address",
          "name": "owner",
          "type": "address"
        },
        {
          "internalType": "address",
          "name": "operator",
          "type": "address"
        }
      ],
      "name": "isApprovedForAll",
      "outputs": [
        {
          "internalType": "bool",
          "name": "",
          "type": "bool"
        }
      ],
      "stateMutability": "view",
      "type": "function"
    },
    {
      "inputs": [],
      "name": "maxQuantity",
      "outputs": [
        {
          "internalType": "uint256",
          "name": "",
          "type": "uint256"
        }
      ],
      "stateMutability": "view",
      "type": "function"
    },
    {
      "inputs": [
        {
          "internalType": "address",
          "name": "to",
          "type": "address"
        },
        {
          "internalType": "string",
          "name": "nftUrl",
          "type": "string"
        }
      ],
      "name": "mint",
      "outputs": [],
      "stateMutability": "payable",
      "type": "function"
    },
    {
      "inputs": [],
      "name": "name",
      "outputs": [
        {
          "internalType": "string",
          "name": "",
          "type": "string"
        }
      ],
      "stateMutability": "view",
      "type": "function"
    },
    {
      "inputs": [],
      "name": "owner",
      "outputs": [
        {
          "internalType": "address",
          "name": "",
          "type": "address"
        }
      ],
      "stateMutability": "view",
      "type": "function"
    },
    {
      "inputs": [
        {
          "internalType": "uint256",
          "name": "tokenId",
          "type": "uint256"
        }
      ],
      "name": "ownerOf",
      "outputs": [
        {
          "internalType": "address",
          "name": "",
          "type": "address"
        }
      ],
      "stateMutability": "view",
      "type": "function"
    },
    {
      "inputs": [],
      "name": "promptDescription",
      "outputs": [
        {
          "internalType": "string",
          "name": "",
          "type": "string"
        }
      ],
      "stateMutability": "view",
      "type": "function"
    },
    {
      "inputs": [],
      "name": "renounceOwnership",
      "outputs": [],
      "stateMutability": "nonpayable",
      "type": "function"
    },
    {
      "inputs": [
        {
          "internalType": "address",
          "name": "from",
          "type": "address"
        },
        {
          "internalType": "address",
          "name": "to",
          "type": "address"
        },
        {
          "internalType": "uint256",
          "name": "tokenId",
          "type": "uint256"
        }
      ],
      "name": "safeTransferFrom",
      "outputs": [],
      "stateMutability": "nonpayable",
      "type": "function"
    },
    {
      "inputs": [
        {
          "internalType": "address",
          "name": "from",
          "type": "address"
        },
        {
          "internalType": "address",
          "name": "to",
          "type": "address"
        },
        {
          "internalType": "uint256",
          "name": "tokenId",
          "type": "uint256"
        },
        {
          "internalType": "bytes",
          "name": "data",
          "type": "bytes"
        }
      ],
      "name": "safeTransferFrom",
      "outputs": [],
      "stateMutability": "nonpayable",
      "type": "function"
    },
    {
      "inputs": [
        {
          "internalType": "address",
          "name": "operator",
          "type": "address"
        },
        {
          "internalType": "bool",
          "name": "approved",
          "type": "bool"
        }
      ],
      "name": "setApprovalForAll",
      "outputs": [],
      "stateMutability": "nonpayable",
      "type": "function"
    },
    {
      "inputs": [
        {
          "internalType": "string",
          "name": "newBaseUrl",
          "type": "string"
        }
      ],
      "name": "setBaseURI",
      "outputs": [],
      "stateMutability": "nonpayable",
      "type": "function"
    },
    {
      "inputs": [
        {
          "internalType": "bytes4",
          "name": "interfaceId",
          "type": "bytes4"
        }
      ],
      "name": "supportsInterface",
      "outputs": [
        {
          "internalType": "bool",
          "name": "",
          "type": "bool"
        }
      ],
      "stateMutability": "view",
      "type": "function"
    },
    {
      "inputs": [],
      "name": "symbol",
      "outputs": [
        {
          "internalType": "string",
          "name": "",
          "type": "string"
        }
      ],
      "stateMutability": "view",
      "type": "function"
    },
    {
      "inputs": [
        {
          "internalType": "uint256",
          "name": "index",
          "type": "uint256"
        }
      ],
      "name": "tokenByIndex",
      "outputs": [
        {
          "internalType": "uint256",
          "name": "",
          "type": "uint256"
        }
      ],
      "stateMutability": "view",
      "type": "function"
    },
    {
      "inputs": [
        {
          "internalType": "address",
          "name": "owner",
          "type": "address"
        },
        {
          "internalType": "uint256",
          "name": "index",
          "type": "uint256"
        }
      ],
      "name": "tokenOfOwnerByIndex",
      "outputs": [
        {
          "internalType": "uint256",
          "name": "",
          "type": "uint256"
        }
      ],
      "stateMutability": "view",
      "type": "function"
    },
    {
      "inputs": [
        {
          "internalType": "uint256",
          "name": "tokenId",
          "type": "uint256"
        }
      ],
      "name": "tokenURI",
      "outputs": [
        {
          "internalType": "string",
          "name": "",
          "type": "string"
        }
      ],
      "stateMutability": "view",
      "type": "function"
    },
    {
      "inputs": [],
      "name": "totalSupply",
      "outputs": [
        {
          "internalType": "uint256",
          "name": "",
          "type": "uint256"
        }
      ],
      "stateMutability": "view",
      "type": "function"
    },
    {
      "inputs": [
        {
          "internalType": "address",
          "name": "from",
          "type": "address"
        },
        {
          "internalType": "address",
          "name": "to",
          "type": "address"
        },
        {
          "internalType": "uint256",
          "name": "tokenId",
          "type": "uint256"
        }
      ],
      "name": "transferFrom",
      "outputs": [],
      "stateMutability": "nonpayable",
      "type": "function"
    },
    {
      "inputs": [
        {
          "internalType": "address",
          "name": "newOwner",
          "type": "address"
        }
      ],
      "name": "transferOwnership",
      "outputs": [],
      "stateMutability": "nonpayable",
      "type": "function"
    },
    {
      "inputs": [
        {
          "internalType": "string",
          "name": "newDescription",
          "type": "string"
        }
      ],
      "name": "updatePromptDescription",
      "outputs": [],
      "stateMutability": "nonpayable",
      "type": "function"
    }
  ],
  "bytecode": "0x6080604052604051806080016040528060518152602001620041b160519139600c90816200002e919062000468565b506040518060600160405280602481526020016200418d60249139600d908162000059919062000468565b503480156200006757600080fd5b506040518060400160405280600681526020017f436f77426f7900000000000000000000000000000000000000000000000000008152506040518060400160405280600281526020017f43420000000000000000000000000000000000000000000000000000000000008152508160009081620000e5919062000468565b508060019081620000f7919062000468565b5050506200011a6200010e6200012060201b60201c565b6200012860201b60201c565b6200054f565b600033905090565b6000600a60009054906101000a900473ffffffffffffffffffffffffffffffffffffffff16905081600a60006101000a81548173ffffffffffffffffffffffffffffffffffffffff021916908373ffffffffffffffffffffffffffffffffffffffff1602179055508173ffffffffffffffffffffffffffffffffffffffff168173ffffffffffffffffffffffffffffffffffffffff167f8be0079c531659141344cd1fd0a4f28419497f9722a3daafe3b4186f6b6457e060405160405180910390a35050565b600081519050919050565b7f4e487b7100000000000000000000000000000000000000000000000000000000600052604160045260246000fd5b7f4e487b7100000000000000000000000000000000000000000000000000000000600052602260045260246000fd5b600060028204905060018216806200027057607f821691505b60208210810362000286576200028562000228565b5b50919050565b60008190508160005260206000209050919050565b60006020601f8301049050919050565b600082821b905092915050565b600060088302620002f07fffffffffffffffffffffffffffffffffffffffffffffffffffffffffffffffff82620002b1565b620002fc8683620002b1565b95508019841693508086168417925050509392505050565b6000819050919050565b6000819050919050565b600062000349620003436200033d8462000314565b6200031e565b62000314565b9050919050565b6000819050919050565b620003658362000328565b6200037d620003748262000350565b848454620002be565b825550505050565b600090565b6200039462000385565b620003a18184846200035a565b505050565b5b81811015620003c957620003bd6000826200038a565b600181019050620003a7565b5050565b601f8211156200041857620003e2816200028c565b620003ed84620002a1565b81016020851015620003fd578190505b620004156200040c85620002a1565b830182620003a6565b50505b505050565b600082821c905092915050565b60006200043d600019846008026200041d565b1980831691505092915050565b60006200045883836200042a565b9150826002028217905092915050565b6200047382620001ee565b67ffffffffffffffff8111156200048f576200048e620001f9565b5b6200049b825462000257565b620004a8828285620003cd565b600060209050601f831160018114620004e05760008415620004cb578287015190505b620004d785826200044a565b86555062000547565b601f198416620004f0866200028c565b60005b828110156200051a57848901518255600182019150602085019450602081019050620004f3565b868310156200053a578489015162000536601f8916826200042a565b8355505b6001600288020188555050505b505050505050565b613c2e806200055f6000396000f3fe6080604052600436106101665760003560e01c80636352211e116100d1578063a22cb4651161008a578063d0def52111610064578063d0def52114610560578063e640cf7d1461057c578063e985e9c5146105a7578063f2fde38b146105e457610166565b8063a22cb465146104d1578063b88d4fde146104fa578063c87b56dd1461052357610166565b80636352211e146103bf57806370a08231146103fc578063715018a6146104395780638da5cb5b14610450578063953637311461047b57806395d89b41146104a657610166565b806323b872dd1161012357806323b872dd146102a15780632f745c59146102ca57806342842e0e146103075780634f6ccce71461033057806353eec73d1461036d57806355f804b31461039657610166565b806301ffc9a71461016b57806306fdde03146101a8578063081812fc146101d3578063095ea7b31461021057806318160ddd146102395780631d87b5d414610264575b600080fd5b34801561017757600080fd5b50610192600480360381019061018d9190612592565b61060d565b60405161019f91906125da565b60405180910390f35b3480156101b457600080fd5b506101bd610687565b6040516101ca9190612685565b60405180910390f35b3480156101df57600080fd5b506101fa60048036038101906101f591906126dd565b610719565b604051610207919061274b565b60405180910390f35b34801561021c57600080fd5b5061023760048036038101906102329190612792565b61075f565b005b34801561024557600080fd5b5061024e610876565b60405161025b91906127e1565b60405180910390f35b34801561027057600080fd5b5061028b600480360381019061028691906126dd565b610880565b6040516102989190612685565b60405180910390f35b3480156102ad57600080fd5b506102c860048036038101906102c391906127fc565b61096d565b005b3480156102d657600080fd5b506102f160048036038101906102ec9190612792565b6109cd565b6040516102fe91906127e1565b60405180910390f35b34801561031357600080fd5b5061032e600480360381019061032991906127fc565b610a72565b005b34801561033c57600080fd5b50610357600480360381019061035291906126dd565b610a92565b60405161036491906127e1565b60405180910390f35b34801561037957600080fd5b50610394600480360381019061038f9190612984565b610b03565b005b3480156103a257600080fd5b506103bd60048036038101906103b89190612984565b610b1e565b005b3480156103cb57600080fd5b506103e660048036038101906103e191906126dd565b610b39565b6040516103f3919061274b565b60405180910390f35b34801561040857600080fd5b50610423600480360381019061041e91906129cd565b610bbf565b60405161043091906127e1565b60405180910390f35b34801561044557600080fd5b5061044e610c76565b005b34801561045c57600080fd5b50610465610c8a565b604051610472919061274b565b60405180910390f35b34801561048757600080fd5b50610490610cb4565b60405161049d9190612685565b60405180910390f35b3480156104b257600080fd5b506104bb610d42565b6040516104c89190612685565b60405180910390f35b3480156104dd57600080fd5b506104f860048036038101906104f39190612a26565b610dd4565b005b34801561050657600080fd5b50610521600480360381019061051c9190612b07565b610dea565b005b34801561052f57600080fd5b5061054a600480360381019061054591906126dd565b610e4c565b6040516105579190612685565b60405180910390f35b61057a60048036038101906105759190612bea565b610eb4565b005b34801561058857600080fd5b5061059161101e565b60405161059e91906127e1565b60405180910390f35b3480156105b357600080fd5b506105ce60048036038101906105c99190612c4a565b611023565b6040516105db91906125da565b60405180910390f35b3480156105f057600080fd5b5061060b600480360381019061060691906129cd565b6110b7565b005b60007f780e9d63000000000000000000000000000000000000000000000000000000007bffffffffffffffffffffffffffffffffffffffffffffffffffffffff1916827bffffffffffffffffffffffffffffffffffffffffffffffffffffffff19161480610680575061067f8261113a565b5b9050919050565b60606000805461069690612cb9565b80601f01602080910402602001604051908101604052809291908181526020018280546106c290612cb9565b801561070f5780601f106106e45761010080835404028352916020019161070f565b820191906000526020600020905b8154815290600101906020018083116106f257829003601f168201915b5050505050905090565b60006107248261121c565b6004600083815260200190815260200160002060009054906101000a900473ffffffffffffffffffffffffffffffffffffffff169050919050565b600061076a82610b39565b90508073ffffffffffffffffffffffffffffffffffffffff168373ffffffffffffffffffffffffffffffffffffffff16036107da576040517f08c379a00000000000000000000000000000000000000000000000000000000081526004016107d190612d5c565b60405180910390fd5b8073ffffffffffffffffffffffffffffffffffffffff166107f9611267565b73ffffffffffffffffffffffffffffffffffffffff161480610828575061082781610822611267565b611023565b5b610867576040517f08c379a000000000000000000000000000000000000000000000000000000000815260040161085e90612dee565b60405180910390fd5b610871838361126f565b505050565b6000600b54905090565b606061088b82611328565b6108ca576040517f08c379a00000000000000000000000000000000000000000000000000000000081526004016108c190612e5a565b60405180910390fd5b6010600083815260200190815260200160002080546108e890612cb9565b80601f016020809104026020016040519081016040528092919081815260200182805461091490612cb9565b80156109615780601f1061093657610100808354040283529160200191610961565b820191906000526020600020905b81548152906001019060200180831161094457829003601f168201915b50505050509050919050565b61097e610978611267565b82611369565b6109bd576040517f08c379a00000000000000000000000000000000000000000000000000000000081526004016109b490612eec565b60405180910390fd5b6109c88383836113fe565b505050565b60006109d883610bbf565b8210610a19576040517f08c379a0000000000000000000000000000000000000000000000000000000008152600401610a1090612f7e565b60405180910390fd5b600660008473ffffffffffffffffffffffffffffffffffffffff1673ffffffffffffffffffffffffffffffffffffffff168152602001908152602001600020600083815260200190815260200160002054905092915050565b610a8d83838360405180602001604052806000815250610dea565b505050565b6000610a9c6116f7565b8210610add576040517f08c379a0000000000000000000000000000000000000000000000000000000008152600401610ad490613010565b60405180910390fd5b60088281548110610af157610af0613030565b5b90600052602060002001549050919050565b610b0b611704565b80600d9081610b1a919061320b565b5050565b610b26611704565b80600c9081610b35919061320b565b5050565b600080610b4583611782565b9050600073ffffffffffffffffffffffffffffffffffffffff168173ffffffffffffffffffffffffffffffffffffffff1603610bb6576040517f08c379a0000000000000000000000000000000000000000000000000000000008152600401610bad90613329565b60405180910390fd5b80915050919050565b60008073ffffffffffffffffffffffffffffffffffffffff168273ffffffffffffffffffffffffffffffffffffffff1603610c2f576040517f08c379a0000000000000000000000000000000000000000000000000000000008152600401610c26906133bb565b60405180910390fd5b600360008373ffffffffffffffffffffffffffffffffffffffff1673ffffffffffffffffffffffffffffffffffffffff168152602001908152602001600020549050919050565b610c7e611704565b610c8860006117bf565b565b6000600a60009054906101000a900473ffffffffffffffffffffffffffffffffffffffff16905090565b600d8054610cc190612cb9565b80601f0160208091040260200160405190810160405280929190818152602001828054610ced90612cb9565b8015610d3a5780601f10610d0f57610100808354040283529160200191610d3a565b820191906000526020600020905b815481529060010190602001808311610d1d57829003601f168201915b505050505081565b606060018054610d5190612cb9565b80601f0160208091040260200160405190810160405280929190818152602001828054610d7d90612cb9565b8015610dca5780601f10610d9f57610100808354040283529160200191610dca565b820191906000526020600020905b815481529060010190602001808311610dad57829003601f168201915b5050505050905090565b610de6610ddf611267565b8383611885565b5050565b610dfb610df5611267565b83611369565b610e3a576040517f08c379a0000000000000000000000000000000000000000000000000000000008152600401610e3190612eec565b60405180910390fd5b610e46848484846119f1565b50505050565b6060610e578261121c565b6000610e61611a4d565b90506000815111610e815760405180602001604052806000815250610eac565b80610e8b84611a64565b604051602001610e9c929190613417565b6040516020818303038152906040525b915050919050565b6005600b5410610ef9576040517f08c379a0000000000000000000000000000000000000000000000000000000008152600401610ef090613487565b60405180910390fd5b600b6000815480929190610f0c906134d6565b91905055506000600b549050600e60008573ffffffffffffffffffffffffffffffffffffffff1673ffffffffffffffffffffffffffffffffffffffff1681526020019081526020016000206000815480929190610f68906134d6565b9190505550610f778482611b32565b60405180602001604052806000815250600f60008381526020019081526020016000209081610fa6919061320b565b508282601060008481526020019081526020016000209182610fc9929190613529565b508373ffffffffffffffffffffffffffffffffffffffff167f4cc0a9c4a99ddc700de1af2c9f916a7cbfdb71f14801ccff94061ad1ef8a80408260405161101091906127e1565b60405180910390a250505050565b600581565b6000600560008473ffffffffffffffffffffffffffffffffffffffff1673ffffffffffffffffffffffffffffffffffffffff16815260200190815260200160002060008373ffffffffffffffffffffffffffffffffffffffff1673ffffffffffffffffffffffffffffffffffffffff16815260200190815260200160002060009054906101000a900460ff16905092915050565b6110bf611704565b600073ffffffffffffffffffffffffffffffffffffffff168173ffffffffffffffffffffffffffffffffffffffff160361112e576040517f08c379a00000000000000000000000000000000000000000000000000000000081526004016111259061366b565b60405180910390fd5b611137816117bf565b50565b60007f80ac58cd000000000000000000000000000000000000000000000000000000007bffffffffffffffffffffffffffffffffffffffffffffffffffffffff1916827bffffffffffffffffffffffffffffffffffffffffffffffffffffffff1916148061120557507f5b5e139f000000000000000000000000000000000000000000000000000000007bffffffffffffffffffffffffffffffffffffffffffffffffffffffff1916827bffffffffffffffffffffffffffffffffffffffffffffffffffffffff1916145b80611215575061121482611d4f565b5b9050919050565b61122581611328565b611264576040517f08c379a000000000000000000000000000000000000000000000000000000000815260040161125b90613329565b60405180910390fd5b50565b600033905090565b816004600083815260200190815260200160002060006101000a81548173ffffffffffffffffffffffffffffffffffffffff021916908373ffffffffffffffffffffffffffffffffffffffff160217905550808273ffffffffffffffffffffffffffffffffffffffff166112e283610b39565b73ffffffffffffffffffffffffffffffffffffffff167f8c5be1e5ebec7d5bd14f71427d1e84f3dd0314c0f7b2291e5b200ac8c7c3b92560405160405180910390a45050565b60008073ffffffffffffffffffffffffffffffffffffffff1661134a83611782565b73ffffffffffffffffffffffffffffffffffffffff1614159050919050565b60008061137583610b39565b90508073ffffffffffffffffffffffffffffffffffffffff168473ffffffffffffffffffffffffffffffffffffffff1614806113b757506113b68185611023565b5b806113f557508373ffffffffffffffffffffffffffffffffffffffff166113dd84610719565b73ffffffffffffffffffffffffffffffffffffffff16145b91505092915050565b8273ffffffffffffffffffffffffffffffffffffffff1661141e82610b39565b73ffffffffffffffffffffffffffffffffffffffff1614611474576040517f08c379a000000000000000000000000000000000000000000000000000000000815260040161146b906136fd565b60405180910390fd5b600073ffffffffffffffffffffffffffffffffffffffff168273ffffffffffffffffffffffffffffffffffffffff16036114e3576040517f08c379a00000000000000000000000000000000000000000000000000000000081526004016114da9061378f565b60405180910390fd5b6114f08383836001611db9565b8273ffffffffffffffffffffffffffffffffffffffff1661151082610b39565b73ffffffffffffffffffffffffffffffffffffffff1614611566576040517f08c379a000000000000000000000000000000000000000000000000000000000815260040161155d906136fd565b60405180910390fd5b6004600082815260200190815260200160002060006101000a81549073ffffffffffffffffffffffffffffffffffffffff02191690556001600360008573ffffffffffffffffffffffffffffffffffffffff1673ffffffffffffffffffffffffffffffffffffffff168152602001908152602001600020600082825403925050819055506001600360008473ffffffffffffffffffffffffffffffffffffffff1673ffffffffffffffffffffffffffffffffffffffff16815260200190815260200160002060008282540192505081905550816002600083815260200190815260200160002060006101000a81548173ffffffffffffffffffffffffffffffffffffffff021916908373ffffffffffffffffffffffffffffffffffffffff160217905550808273ffffffffffffffffffffffffffffffffffffffff168473ffffffffffffffffffffffffffffffffffffffff167fddf252ad1be2c89b69c2b068fc378daa952ba7f163c4a11628f55a4df523b3ef60405160405180910390a46116f28383836001611f17565b505050565b6000600880549050905090565b61170c611267565b73ffffffffffffffffffffffffffffffffffffffff1661172a610c8a565b73ffffffffffffffffffffffffffffffffffffffff1614611780576040517f08c379a0000000000000000000000000000000000000000000000000000000008152600401611777906137fb565b60405180910390fd5b565b60006002600083815260200190815260200160002060009054906101000a900473ffffffffffffffffffffffffffffffffffffffff169050919050565b6000600a60009054906101000a900473ffffffffffffffffffffffffffffffffffffffff16905081600a60006101000a81548173ffffffffffffffffffffffffffffffffffffffff021916908373ffffffffffffffffffffffffffffffffffffffff1602179055508173ffffffffffffffffffffffffffffffffffffffff168173ffffffffffffffffffffffffffffffffffffffff167f8be0079c531659141344cd1fd0a4f28419497f9722a3daafe3b4186f6b6457e060405160405180910390a35050565b8173ffffffffffffffffffffffffffffffffffffffff168373ffffffffffffffffffffffffffffffffffffffff16036118f3576040517f08c379a00000000000000000000000000000000000000000000000000000000081526004016118ea90613867565b60405180910390fd5b80600560008573ffffffffffffffffffffffffffffffffffffffff1673ffffffffffffffffffffffffffffffffffffffff16815260200190815260200160002060008473ffffffffffffffffffffffffffffffffffffffff1673ffffffffffffffffffffffffffffffffffffffff16815260200190815260200160002060006101000a81548160ff0219169083151502179055508173ffffffffffffffffffffffffffffffffffffffff168373ffffffffffffffffffffffffffffffffffffffff167f17307eab39ab6107e8899845ad3d59bd9653f200f220920489ca2b5937696c31836040516119e491906125da565b60405180910390a3505050565b6119fc8484846113fe565b611a0884848484611f1d565b611a47576040517f08c379a0000000000000000000000000000000000000000000000000000000008152600401611a3e906138f9565b60405180910390fd5b50505050565b606060405180602001604052806000815250905090565b606060006001611a73846120a4565b01905060008167ffffffffffffffff811115611a9257611a91612859565b5b6040519080825280601f01601f191660200182016040528015611ac45781602001600182028036833780820191505090505b509050600082602001820190505b600115611b27578080600190039150507f3031323334353637383961626364656600000000000000000000000000000000600a86061a8153600a8581611b1b57611b1a613919565b5b04945060008503611ad2575b819350505050919050565b600073ffffffffffffffffffffffffffffffffffffffff168273ffffffffffffffffffffffffffffffffffffffff1603611ba1576040517f08c379a0000000000000000000000000000000000000000000000000000000008152600401611b9890613994565b60405180910390fd5b611baa81611328565b15611bea576040517f08c379a0000000000000000000000000000000000000000000000000000000008152600401611be190613a00565b60405180910390fd5b611bf8600083836001611db9565b611c0181611328565b15611c41576040517f08c379a0000000000000000000000000000000000000000000000000000000008152600401611c3890613a00565b60405180910390fd5b6001600360008473ffffffffffffffffffffffffffffffffffffffff1673ffffffffffffffffffffffffffffffffffffffff16815260200190815260200160002060008282540192505081905550816002600083815260200190815260200160002060006101000a81548173ffffffffffffffffffffffffffffffffffffffff021916908373ffffffffffffffffffffffffffffffffffffffff160217905550808273ffffffffffffffffffffffffffffffffffffffff16600073ffffffffffffffffffffffffffffffffffffffff167fddf252ad1be2c89b69c2b068fc378daa952ba7f163c4a11628f55a4df523b3ef60405160405180910390a4611d4b600083836001611f17565b5050565b60007f01ffc9a7000000000000000000000000000000000000000000000000000000007bffffffffffffffffffffffffffffffffffffffffffffffffffffffff1916827bffffffffffffffffffffffffffffffffffffffffffffffffffffffff1916149050919050565b611dc5848484846121f7565b6001811115611e09576040517f08c379a0000000000000000000000000000000000000000000000000000000008152600401611e0090613a92565b60405180910390fd5b6000829050600073ffffffffffffffffffffffffffffffffffffffff168573ffffffffffffffffffffffffffffffffffffffff1603611e5057611e4b816121fd565b611e8f565b8373ffffffffffffffffffffffffffffffffffffffff168573ffffffffffffffffffffffffffffffffffffffff1614611e8e57611e8d8582612246565b5b5b600073ffffffffffffffffffffffffffffffffffffffff168473ffffffffffffffffffffffffffffffffffffffff1603611ed157611ecc816123b3565b611f10565b8473ffffffffffffffffffffffffffffffffffffffff168473ffffffffffffffffffffffffffffffffffffffff1614611f0f57611f0e8482612484565b5b5b5050505050565b50505050565b6000611f3e8473ffffffffffffffffffffffffffffffffffffffff16612503565b15612097578373ffffffffffffffffffffffffffffffffffffffff1663150b7a02611f67611267565b8786866040518563ffffffff1660e01b8152600401611f899493929190613b07565b6020604051808303816000875af1925050508015611fc557506040513d601f19601f82011682018060405250810190611fc29190613b68565b60015b612047573d8060008114611ff5576040519150601f19603f3d011682016040523d82523d6000602084013e611ffa565b606091505b50600081510361203f576040517f08c379a0000000000000000000000000000000000000000000000000000000008152600401612036906138f9565b60405180910390fd5b805181602001fd5b63150b7a0260e01b7bffffffffffffffffffffffffffffffffffffffffffffffffffffffff1916817bffffffffffffffffffffffffffffffffffffffffffffffffffffffff19161491505061209c565b600190505b949350505050565b600080600090507a184f03e93ff9f4daa797ed6e38ed64bf6a1f0100000000000000008310612102577a184f03e93ff9f4daa797ed6e38ed64bf6a1f01000000000000000083816120f8576120f7613919565b5b0492506040810190505b6d04ee2d6d415b85acef8100000000831061213f576d04ee2d6d415b85acef8100000000838161213557612134613919565b5b0492506020810190505b662386f26fc10000831061216e57662386f26fc10000838161216457612163613919565b5b0492506010810190505b6305f5e1008310612197576305f5e100838161218d5761218c613919565b5b0492506008810190505b61271083106121bc5761271083816121b2576121b1613919565b5b0492506004810190505b606483106121df57606483816121d5576121d4613919565b5b0492506002810190505b600a83106121ee576001810190505b80915050919050565b50505050565b6008805490506009600083815260200190815260200160002081905550600881908060018154018082558091505060019003906000526020600020016000909190919091505550565b6000600161225384610bbf565b61225d9190613b95565b9050600060076000848152602001908152602001600020549050818114612342576000600660008673ffffffffffffffffffffffffffffffffffffffff1673ffffffffffffffffffffffffffffffffffffffff168152602001908152602001600020600084815260200190815260200160002054905080600660008773ffffffffffffffffffffffffffffffffffffffff1673ffffffffffffffffffffffffffffffffffffffff168152602001908152602001600020600084815260200190815260200160002081905550816007600083815260200190815260200160002081905550505b6007600084815260200190815260200160002060009055600660008573ffffffffffffffffffffffffffffffffffffffff1673ffffffffffffffffffffffffffffffffffffffff16815260200190815260200160002060008381526020019081526020016000206000905550505050565b600060016008805490506123c79190613b95565b90506000600960008481526020019081526020016000205490506000600883815481106123f7576123f6613030565b5b90600052602060002001549050806008838154811061241957612418613030565b5b90600052602060002001819055508160096000838152602001908152602001600020819055506009600085815260200190815260200160002060009055600880548061246857612467613bc9565b5b6001900381819060005260206000200160009055905550505050565b600061248f83610bbf565b905081600660008573ffffffffffffffffffffffffffffffffffffffff1673ffffffffffffffffffffffffffffffffffffffff168152602001908152602001600020600083815260200190815260200160002081905550806007600084815260200190815260200160002081905550505050565b6000808273ffffffffffffffffffffffffffffffffffffffff163b119050919050565b6000604051905090565b600080fd5b600080fd5b60007fffffffff0000000000000000000000000000000000000000000000000000000082169050919050565b61256f8161253a565b811461257a57600080fd5b50565b60008135905061258c81612566565b92915050565b6000602082840312156125a8576125a7612530565b5b60006125b68482850161257d565b91505092915050565b60008115159050919050565b6125d4816125bf565b82525050565b60006020820190506125ef60008301846125cb565b92915050565b600081519050919050565b600082825260208201905092915050565b60005b8381101561262f578082015181840152602081019050612614565b60008484015250505050565b6000601f19601f8301169050919050565b6000612657826125f5565b6126618185612600565b9350612671818560208601612611565b61267a8161263b565b840191505092915050565b6000602082019050818103600083015261269f818461264c565b905092915050565b6000819050919050565b6126ba816126a7565b81146126c557600080fd5b50565b6000813590506126d7816126b1565b92915050565b6000602082840312156126f3576126f2612530565b5b6000612701848285016126c8565b91505092915050565b600073ffffffffffffffffffffffffffffffffffffffff82169050919050565b60006127358261270a565b9050919050565b6127458161272a565b82525050565b6000602082019050612760600083018461273c565b92915050565b61276f8161272a565b811461277a57600080fd5b50565b60008135905061278c81612766565b92915050565b600080604083850312156127a9576127a8612530565b5b60006127b78582860161277d565b92505060206127c8858286016126c8565b9150509250929050565b6127db816126a7565b82525050565b60006020820190506127f660008301846127d2565b92915050565b60008060006060848603121561281557612814612530565b5b60006128238682870161277d565b93505060206128348682870161277d565b9250506040612845868287016126c8565b9150509250925092565b600080fd5b600080fd5b7f4e487b7100000000000000000000000000000000000000000000000000000000600052604160045260246000fd5b6128918261263b565b810181811067ffffffffffffffff821117156128b0576128af612859565b5b80604052505050565b60006128c3612526565b90506128cf8282612888565b919050565b600067ffffffffffffffff8211156128ef576128ee612859565b5b6128f88261263b565b9050602081019050919050565b82818337600083830152505050565b6000612927612922846128d4565b6128b9565b90508281526020810184848401111561294357612942612854565b5b61294e848285612905565b509392505050565b600082601f83011261296b5761296a61284f565b5b813561297b848260208601612914565b91505092915050565b60006020828403121561299a57612999612530565b5b600082013567ffffffffffffffff8111156129b8576129b7612535565b5b6129c484828501612956565b91505092915050565b6000602082840312156129e3576129e2612530565b5b60006129f18482850161277d565b91505092915050565b612a03816125bf565b8114612a0e57600080fd5b50565b600081359050612a20816129fa565b92915050565b60008060408385031215612a3d57612a3c612530565b5b6000612a4b8582860161277d565b9250506020612a5c85828601612a11565b9150509250929050565b600067ffffffffffffffff821115612a8157612a80612859565b5b612a8a8261263b565b9050602081019050919050565b6000612aaa612aa584612a66565b6128b9565b905082815260208101848484011115612ac657612ac5612854565b5b612ad1848285612905565b509392505050565b600082601f830112612aee57612aed61284f565b5b8135612afe848260208601612a97565b91505092915050565b60008060008060808587031215612b2157612b20612530565b5b6000612b2f8782880161277d565b9450506020612b408782880161277d565b9350506040612b51878288016126c8565b925050606085013567ffffffffffffffff811115612b7257612b71612535565b5b612b7e87828801612ad9565b91505092959194509250565b600080fd5b600080fd5b60008083601f840112612baa57612ba961284f565b5b8235905067ffffffffffffffff811115612bc757612bc6612b8a565b5b602083019150836001820283011115612be357612be2612b8f565b5b9250929050565b600080600060408486031215612c0357612c02612530565b5b6000612c118682870161277d565b935050602084013567ffffffffffffffff811115612c3257612c31612535565b5b612c3e86828701612b94565b92509250509250925092565b60008060408385031215612c6157612c60612530565b5b6000612c6f8582860161277d565b9250506020612c808582860161277d565b9150509250929050565b7f4e487b7100000000000000000000000000000000000000000000000000000000600052602260045260246000fd5b60006002820490506001821680612cd157607f821691505b602082108103612ce457612ce3612c8a565b5b50919050565b7f4552433732313a20617070726f76616c20746f2063757272656e74206f776e6560008201527f7200000000000000000000000000000000000000000000000000000000000000602082015250565b6000612d46602183612600565b9150612d5182612cea565b604082019050919050565b60006020820190508181036000830152612d7581612d39565b9050919050565b7f4552433732313a20617070726f76652063616c6c6572206973206e6f7420746f60008201527f6b656e206f776e6572206f7220617070726f76656420666f7220616c6c000000602082015250565b6000612dd8603d83612600565b9150612de382612d7c565b604082019050919050565b60006020820190508181036000830152612e0781612dcb565b9050919050565b7f496e76616c696420746f6b656e49640000000000000000000000000000000000600082015250565b6000612e44600f83612600565b9150612e4f82612e0e565b602082019050919050565b60006020820190508181036000830152612e7381612e37565b9050919050565b7f4552433732313a2063616c6c6572206973206e6f7420746f6b656e206f776e6560008201527f72206f7220617070726f76656400000000000000000000000000000000000000602082015250565b6000612ed6602d83612600565b9150612ee182612e7a565b604082019050919050565b60006020820190508181036000830152612f0581612ec9565b9050919050565b7f455243373231456e756d657261626c653a206f776e657220696e646578206f7560008201527f74206f6620626f756e6473000000000000000000000000000000000000000000602082015250565b6000612f68602b83612600565b9150612f7382612f0c565b604082019050919050565b60006020820190508181036000830152612f9781612f5b565b9050919050565b7f455243373231456e756d657261626c653a20676c6f62616c20696e646578206f60008201527f7574206f6620626f756e64730000000000000000000000000000000000000000602082015250565b6000612ffa602c83612600565b915061300582612f9e565b604082019050919050565b6000602082019050818103600083015261302981612fed565b9050919050565b7f4e487b7100000000000000000000000000000000000000000000000000000000600052603260045260246000fd5b60008190508160005260206000209050919050565b60006020601f8301049050919050565b600082821b905092915050565b6000600883026130c17fffffffffffffffffffffffffffffffffffffffffffffffffffffffffffffffff82613084565b6130cb8683613084565b95508019841693508086168417925050509392505050565b6000819050919050565b60006131086131036130fe846126a7565b6130e3565b6126a7565b9050919050565b6000819050919050565b613122836130ed565b61313661312e8261310f565b848454613091565b825550505050565b600090565b61314b61313e565b613156818484613119565b505050565b5b8181101561317a5761316f600082613143565b60018101905061315c565b5050565b601f8211156131bf576131908161305f565b61319984613074565b810160208510156131a8578190505b6131bc6131b485613074565b83018261315b565b50505b505050565b600082821c905092915050565b60006131e2600019846008026131c4565b1980831691505092915050565b60006131fb83836131d1565b9150826002028217905092915050565b613214826125f5565b67ffffffffffffffff81111561322d5761322c612859565b5b6132378254612cb9565b61324282828561317e565b600060209050601f8311600181146132755760008415613263578287015190505b61326d85826131ef565b8655506132d5565b601f1984166132838661305f565b60005b828110156132ab57848901518255600182019150602085019450602081019050613286565b868310156132c857848901516132c4601f8916826131d1565b8355505b6001600288020188555050505b505050505050565b7f4552433732313a20696e76616c696420746f6b656e2049440000000000000000600082015250565b6000613313601883612600565b915061331e826132dd565b602082019050919050565b6000602082019050818103600083015261334281613306565b9050919050565b7f4552433732313a2061646472657373207a65726f206973206e6f74206120766160008201527f6c6964206f776e65720000000000000000000000000000000000000000000000602082015250565b60006133a5602983612600565b91506133b082613349565b604082019050919050565b600060208201905081810360008301526133d481613398565b9050919050565b600081905092915050565b60006133f1826125f5565b6133fb81856133db565b935061340b818560208601612611565b80840191505092915050565b600061342382856133e6565b915061342f82846133e6565b91508190509392505050565b7f6f7665726c696d69742000000000000000000000000000000000000000000000600082015250565b6000613471600a83612600565b915061347c8261343b565b602082019050919050565b600060208201905081810360008301526134a081613464565b9050919050565b7f4e487b7100000000000000000000000000000000000000000000000000000000600052601160045260246000fd5b60006134e1826126a7565b91507fffffffffffffffffffffffffffffffffffffffffffffffffffffffffffffffff8203613513576135126134a7565b5b600182019050919050565b600082905092915050565b613533838361351e565b67ffffffffffffffff81111561354c5761354b612859565b5b6135568254612cb9565b61356182828561317e565b6000601f831160018114613590576000841561357e578287013590505b61358885826131ef565b8655506135f0565b601f19841661359e8661305f565b60005b828110156135c6578489013582556001820191506020850194506020810190506135a1565b868310156135e357848901356135df601f8916826131d1565b8355505b6001600288020188555050505b50505050505050565b7f4f776e61626c653a206e6577206f776e657220697320746865207a65726f206160008201527f6464726573730000000000000000000000000000000000000000000000000000602082015250565b6000613655602683612600565b9150613660826135f9565b604082019050919050565b6000602082019050818103600083015261368481613648565b9050919050565b7f4552433732313a207472616e736665722066726f6d20696e636f72726563742060008201527f6f776e6572000000000000000000000000000000000000000000000000000000602082015250565b60006136e7602583612600565b91506136f28261368b565b604082019050919050565b60006020820190508181036000830152613716816136da565b9050919050565b7f4552433732313a207472616e7366657220746f20746865207a65726f2061646460008201527f7265737300000000000000000000000000000000000000000000000000000000602082015250565b6000613779602483612600565b91506137848261371d565b604082019050919050565b600060208201905081810360008301526137a88161376c565b9050919050565b7f4f776e61626c653a2063616c6c6572206973206e6f7420746865206f776e6572600082015250565b60006137e5602083612600565b91506137f0826137af565b602082019050919050565b60006020820190508181036000830152613814816137d8565b9050919050565b7f4552433732313a20617070726f766520746f2063616c6c657200000000000000600082015250565b6000613851601983612600565b915061385c8261381b565b602082019050919050565b6000602082019050818103600083015261388081613844565b9050919050565b7f4552433732313a207472616e7366657220746f206e6f6e20455243373231526560008201527f63656976657220696d706c656d656e7465720000000000000000000000000000602082015250565b60006138e3603283612600565b91506138ee82613887565b604082019050919050565b60006020820190508181036000830152613912816138d6565b9050919050565b7f4e487b7100000000000000000000000000000000000000000000000000000000600052601260045260246000fd5b7f4552433732313a206d696e7420746f20746865207a65726f2061646472657373600082015250565b600061397e602083612600565b915061398982613948565b602082019050919050565b600060208201905081810360008301526139ad81613971565b9050919050565b7f4552433732313a20746f6b656e20616c7265616479206d696e74656400000000600082015250565b60006139ea601c83612600565b91506139f5826139b4565b602082019050919050565b60006020820190508181036000830152613a19816139dd565b9050919050565b7f455243373231456e756d657261626c653a20636f6e736563757469766520747260008201527f616e7366657273206e6f7420737570706f727465640000000000000000000000602082015250565b6000613a7c603583612600565b9150613a8782613a20565b604082019050919050565b60006020820190508181036000830152613aab81613a6f565b9050919050565b600081519050919050565b600082825260208201905092915050565b6000613ad982613ab2565b613ae38185613abd565b9350613af3818560208601612611565b613afc8161263b565b840191505092915050565b6000608082019050613b1c600083018761273c565b613b29602083018661273c565b613b3660408301856127d2565b8181036060830152613b488184613ace565b905095945050505050565b600081519050613b6281612566565b92915050565b600060208284031215613b7e57613b7d612530565b5b6000613b8c84828501613b53565b91505092915050565b6000613ba0826126a7565b9150613bab836126a7565b9250828203905081811115613bc357613bc26134a7565b5b92915050565b7f4e487b7100000000000000000000000000000000000000000000000000000000600052603160045260246000fdfea26469706673582212203f4fbe8c0986e648cb304fe2ab26a7d588faf1442f8317618a35243e52546b0d64736f6c63430008120033637265617465204e4654206f6620636f77626f7920696e20656e7669726f6e6d656e742068747470733a2f2f676174657761792e70696e6174612e636c6f75642f697066732f516d53616e3377734d33756b70684850325131564d58427251756963414b6b783747794436597641776f36754b592f",
  "linkReferences": {},
  "deployedLinkReferences": {}
}